{
  "_format": "hh-sol-artifact-1",
  "contractName": "ReviewHandler",
  "sourceName": "contracts/ReviewHanlder.sol",
  "abi": [
    {
      "inputs": [
        {
          "internalType": "address",
          "name": "vrfCoordinator",
          "type": "address"
        },
        {
          "internalType": "address",
          "name": "link",
          "type": "address"
        },
        {
          "internalType": "bytes32",
          "name": "keyHash",
          "type": "bytes32"
        },
        {
          "internalType": "uint256",
          "name": "fee",
          "type": "uint256"
        }
      ],
      "stateMutability": "nonpayable",
      "type": "constructor"
    },
    {
      "anonymous": false,
      "inputs": [
        {
          "indexed": false,
          "internalType": "address",
          "name": "sender",
          "type": "address"
        },
        {
          "indexed": false,
          "internalType": "uint256",
          "name": "amount",
          "type": "uint256"
        }
      ],
      "name": "Deposit",
      "type": "event"
    },
    {
      "anonymous": false,
      "inputs": [
        {
          "indexed": true,
          "internalType": "bytes32",
          "name": "requestId",
          "type": "bytes32"
        },
        {
          "indexed": true,
          "internalType": "uint256",
          "name": "result",
          "type": "uint256"
        }
      ],
      "name": "GenratedRandom",
      "type": "event"
    },
    {
      "anonymous": false,
      "inputs": [
        {
          "indexed": true,
          "internalType": "address",
          "name": "previousOwner",
          "type": "address"
        },
        {
          "indexed": true,
          "internalType": "address",
          "name": "newOwner",
          "type": "address"
        }
      ],
      "name": "OwnershipTransferred",
      "type": "event"
    },
    {
      "anonymous": false,
      "inputs": [
        {
          "indexed": false,
          "internalType": "address",
          "name": "nftContract",
          "type": "address"
        },
        {
          "indexed": false,
          "internalType": "uint256",
          "name": "tokenId",
          "type": "uint256"
        },
        {
          "indexed": false,
          "internalType": "address",
          "name": "from",
          "type": "address"
        }
      ],
      "name": "PaperToReviewSetted",
      "type": "event"
    },
    {
      "anonymous": false,
      "inputs": [
        {
          "indexed": false,
          "internalType": "address",
          "name": "nftContract",
          "type": "address"
        },
        {
          "indexed": false,
          "internalType": "uint256",
          "name": "tokenId",
          "type": "uint256"
        },
        {
          "indexed": false,
          "internalType": "address",
          "name": "from",
          "type": "address"
        }
      ],
      "name": "SentReview",
      "type": "event"
    },
    {
      "anonymous": false,
      "inputs": [
        {
          "indexed": false,
          "internalType": "address",
          "name": "sender",
          "type": "address"
        },
        {
          "indexed": false,
          "internalType": "address",
          "name": "receiver",
          "type": "address"
        },
        {
          "indexed": false,
          "internalType": "uint256",
          "name": "amount",
          "type": "uint256"
        }
      ],
      "name": "Transfer",
      "type": "event"
    },
    {
      "inputs": [],
      "name": "accReward",
      "outputs": [],
      "stateMutability": "payable",
      "type": "function"
    },
    {
      "inputs": [],
      "name": "assignReviewers",
      "outputs": [],
      "stateMutability": "nonpayable",
      "type": "function"
    },
    {
      "inputs": [],
      "name": "claimReward",
      "outputs": [],
      "stateMutability": "nonpayable",
      "type": "function"
    },
    {
      "inputs": [],
      "name": "currentPaidState",
      "outputs": [
        {
          "internalType": "enum ReviewHandler.PaidState",
          "name": "",
          "type": "uint8"
        }
      ],
      "stateMutability": "view",
      "type": "function"
    },
    {
      "inputs": [],
      "name": "currentState",
      "outputs": [
        {
          "internalType": "enum ReviewHandler.ExecutionState",
          "name": "",
          "type": "uint8"
        }
      ],
      "stateMutability": "view",
      "type": "function"
    },
    {
      "inputs": [],
      "name": "getRandomNumber",
      "outputs": [
        {
          "internalType": "bytes32",
          "name": "requestId",
          "type": "bytes32"
        }
      ],
      "stateMutability": "nonpayable",
      "type": "function"
    },
    {
      "inputs": [],
      "name": "getSelectedReviewers",
      "outputs": [
        {
          "internalType": "address[]",
          "name": "",
          "type": "address[]"
        }
      ],
      "stateMutability": "view",
      "type": "function"
    },
    {
      "inputs": [
        {
          "internalType": "address",
          "name": "",
          "type": "address"
        }
      ],
      "name": "hasClaimed",
      "outputs": [
        {
          "internalType": "bool",
          "name": "",
          "type": "bool"
        }
      ],
      "stateMutability": "view",
      "type": "function"
    },
    {
      "inputs": [
        {
          "internalType": "address",
          "name": "",
          "type": "address"
        }
      ],
      "name": "hasSubmited",
      "outputs": [
        {
          "internalType": "bool",
          "name": "",
          "type": "bool"
        }
      ],
      "stateMutability": "view",
      "type": "function"
    },
    {
      "inputs": [],
      "name": "individualReward",
      "outputs": [
        {
          "internalType": "uint256",
          "name": "",
          "type": "uint256"
        }
      ],
      "stateMutability": "view",
      "type": "function"
    },
    {
      "inputs": [],
      "name": "isvalid",
      "outputs": [
        {
          "internalType": "enum ReviewHandler.ValidateRandom",
          "name": "",
          "type": "uint8"
        }
      ],
      "stateMutability": "view",
      "type": "function"
    },
    {
      "inputs": [],
      "name": "joinAsReviewer",
      "outputs": [],
      "stateMutability": "nonpayable",
      "type": "function"
    },
    {
      "inputs": [],
      "name": "owner",
      "outputs": [
        {
          "internalType": "address",
          "name": "",
          "type": "address"
        }
      ],
      "stateMutability": "view",
      "type": "function"
    },
    {
      "inputs": [],
      "name": "paper",
      "outputs": [
        {
          "internalType": "address",
          "name": "nft",
          "type": "address"
        },
        {
          "internalType": "uint256",
          "name": "tokenId",
          "type": "uint256"
        }
      ],
      "stateMutability": "view",
      "type": "function"
    },
    {
      "inputs": [],
      "name": "randomValue",
      "outputs": [
        {
          "internalType": "uint256",
          "name": "",
          "type": "uint256"
        }
      ],
      "stateMutability": "view",
      "type": "function"
    },
    {
      "inputs": [
        {
          "internalType": "bytes32",
          "name": "requestId",
          "type": "bytes32"
        },
        {
          "internalType": "uint256",
          "name": "randomness",
          "type": "uint256"
        }
      ],
      "name": "rawFulfillRandomness",
      "outputs": [],
      "stateMutability": "nonpayable",
      "type": "function"
    },
    {
      "inputs": [],
      "name": "renounceOwnership",
      "outputs": [],
      "stateMutability": "nonpayable",
      "type": "function"
    },
    {
      "inputs": [
        {
          "internalType": "uint256",
          "name": "",
          "type": "uint256"
        }
      ],
      "name": "reviewPapers",
      "outputs": [
        {
          "internalType": "address",
          "name": "nft",
          "type": "address"
        },
        {
          "internalType": "uint256",
          "name": "tokenId",
          "type": "uint256"
        }
      ],
      "stateMutability": "view",
      "type": "function"
    },
    {
      "inputs": [],
      "name": "reward",
      "outputs": [
        {
          "internalType": "uint256",
          "name": "",
          "type": "uint256"
        }
      ],
      "stateMutability": "view",
      "type": "function"
    },
    {
      "inputs": [
        {
          "internalType": "uint256",
          "name": "",
          "type": "uint256"
        }
      ],
      "name": "selectedReviewers",
      "outputs": [
        {
          "internalType": "address",
          "name": "",
          "type": "address"
        }
      ],
      "stateMutability": "view",
      "type": "function"
    },
    {
      "inputs": [
        {
          "internalType": "address",
          "name": "_nftContract",
          "type": "address"
        },
        {
          "internalType": "uint256",
          "name": "_tokenId",
          "type": "uint256"
        }
      ],
      "name": "sendReview",
      "outputs": [],
      "stateMutability": "nonpayable",
      "type": "function"
    },
    {
      "inputs": [
        {
          "internalType": "uint256",
          "name": "",
          "type": "uint256"
        }
      ],
      "name": "sentReviews",
      "outputs": [
        {
          "internalType": "address",
          "name": "",
          "type": "address"
        }
      ],
      "stateMutability": "view",
      "type": "function"
    },
    {
      "inputs": [
        {
          "internalType": "address",
          "name": "_nftContract",
          "type": "address"
        },
        {
          "internalType": "uint256",
          "name": "_tokenId",
          "type": "uint256"
        }
      ],
      "name": "setPaperToReview",
      "outputs": [],
      "stateMutability": "nonpayable",
      "type": "function"
    },
    {
      "inputs": [
        {
          "internalType": "address",
          "name": "newOwner",
          "type": "address"
        }
      ],
      "name": "transferOwnership",
      "outputs": [],
      "stateMutability": "nonpayable",
      "type": "function"
    }
  ],
  "bytecode": "0x60c06040523480156200001157600080fd5b50604051620038bf380380620038bf8339818101604052810190620000379190620002ea565b83838173ffffffffffffffffffffffffffffffffffffffff1660a08173ffffffffffffffffffffffffffffffffffffffff1660601b815250508073ffffffffffffffffffffffffffffffffffffffff1660808173ffffffffffffffffffffffffffffffffffffffff1660601b815250505050620000c9620000bd620001d760201b60201c565b620001df60201b60201c565b81600281905550806003819055506001600d60026101000a81548160ff0219169083600181111562000124577f4e487b7100000000000000000000000000000000000000000000000000000000600052602160045260246000fd5b02179055506000600d60006101000a81548160ff0219169083600281111562000176577f4e487b7100000000000000000000000000000000000000000000000000000000600052602160045260246000fd5b02179055506000600d60016101000a81548160ff02191690836001811115620001c8577f4e487b7100000000000000000000000000000000000000000000000000000000600052602160045260246000fd5b021790555050505050620003ec565b600033905090565b6000600160009054906101000a900473ffffffffffffffffffffffffffffffffffffffff16905081600160006101000a81548173ffffffffffffffffffffffffffffffffffffffff021916908373ffffffffffffffffffffffffffffffffffffffff1602179055508173ffffffffffffffffffffffffffffffffffffffff168173ffffffffffffffffffffffffffffffffffffffff167f8be0079c531659141344cd1fd0a4f28419497f9722a3daafe3b4186f6b6457e060405160405180910390a35050565b600081519050620002b6816200039e565b92915050565b600081519050620002cd81620003b8565b92915050565b600081519050620002e481620003d2565b92915050565b600080600080608085870312156200030157600080fd5b60006200031187828801620002a5565b94505060206200032487828801620002a5565b93505060406200033787828801620002bc565b92505060606200034a87828801620002d3565b91505092959194509250565b6000620003638262000374565b9050919050565b6000819050919050565b600073ffffffffffffffffffffffffffffffffffffffff82169050919050565b6000819050919050565b620003a98162000356565b8114620003b557600080fd5b50565b620003c3816200036a565b8114620003cf57600080fd5b50565b620003dd8162000394565b8114620003e957600080fd5b50565b60805160601c60a05160601c6134996200042660003960008181610b430152611e2601526000818161131e0152611dea01526134996000f3fe60806040526004361061014b5760003560e01c806383d0c510116100b6578063b88a802f1161006f578063b88a802f1461043e578063dbdff2c114610455578063ef622d3614610480578063f2fde38b146104a9578063f546756c146104d2578063f8c587ac1461050f5761014b565b806383d0c5101461032e5780638da5cb5b1461035957806394985ddd1461038457806398ad9282146103ad578063a0427aad146103ea578063a7aba64b146104135761014b565b806339f2d5af1161010857806339f2d5af146102635780634d80f0fd1461027a578063562975cb146102a5578063715018a6146102af578063724b3dfc146102c657806373b2e80e146102f15761014b565b806304a19b3a146101505780630c3f6acf1461018d5780631b00ac45146101b8578063228cb733146101cf578063276801ec146101fa57806333d3a3db14610225575b600080fd5b34801561015c57600080fd5b50610177600480360381019061017291906123ea565b61053b565b6040516101849190612810565b60405180910390f35b34801561019957600080fd5b506101a261057a565b6040516101af91906129c6565b60405180910390f35b3480156101c457600080fd5b506101cd61058d565b005b3480156101db57600080fd5b506101e46106ea565b6040516101f19190612c37565b60405180910390f35b34801561020657600080fd5b5061020f6106f0565b60405161021c9190612c37565b60405180910390f35b34801561023157600080fd5b5061024c600480360381019061024791906123ea565b6106f6565b60405161025a929190612862565b60405180910390f35b34801561026f57600080fd5b5061027861074a565b005b34801561028657600080fd5b5061028f610899565b60405161029c91906129e1565b60405180910390f35b6102ad6108ac565b005b3480156102bb57600080fd5b506102c4610a56565b005b3480156102d257600080fd5b506102db610ade565b6040516102e89190612c37565b60405180910390f35b3480156102fd57600080fd5b50610318600480360381019061031391906122f7565b610ae4565b6040516103259190612922565b60405180910390f35b34801561033a57600080fd5b50610343610b04565b60405161035091906129fc565b60405180910390f35b34801561036557600080fd5b5061036e610b17565b60405161037b9190612810565b60405180910390f35b34801561039057600080fd5b506103ab60048036038101906103a691906123ae565b610b41565b005b3480156103b957600080fd5b506103d460048036038101906103cf91906123ea565b610bdd565b6040516103e19190612810565b60405180910390f35b3480156103f657600080fd5b50610411600480360381019061040c9190612349565b610c1c565b005b34801561041f57600080fd5b50610428610fe1565b6040516104359190612900565b60405180910390f35b34801561044a57600080fd5b5061045361106f565b005b34801561046157600080fd5b5061046a611317565b604051610477919061293d565b60405180910390f35b34801561048c57600080fd5b506104a760048036038101906104a29190612349565b611419565b005b3480156104b557600080fd5b506104d060048036038101906104cb91906122f7565b6118c1565b005b3480156104de57600080fd5b506104f960048036038101906104f491906122f7565b6119b9565b6040516105069190612922565b60405180910390f35b34801561051b57600080fd5b506105246119d9565b604051610532929190612862565b60405180910390f35b600e818154811061054b57600080fd5b906000526020600020016000915054906101000a900473ffffffffffffffffffffffffffffffffffffffff1681565b600d60009054906101000a900460ff1681565b610595611a0b565b73ffffffffffffffffffffffffffffffffffffffff166105b3610b17565b73ffffffffffffffffffffffffffffffffffffffff1614610609576040517f08c379a000000000000000000000000000000000000000000000000000000000815260040161060090612b77565b60405180910390fd5b60056106156008611a13565b1015610656576040517f08c379a000000000000000000000000000000000000000000000000000000000815260040161064d90612bd7565b60405180910390fd5b6001600d60006101000a81548160ff021916908360028111156106a2577f4e487b7100000000000000000000000000000000000000000000000000000000600052602160045260246000fd5b021790555060006002600480546106b99190612eed565b6106c39190612ce1565b90506106ce81611a28565b6007805490506005546106e19190612d37565b60068190555050565b60055481565b60045481565b600c818154811061070657600080fd5b90600052602060002090600202016000915090508060000160009054906101000a900473ffffffffffffffffffffffffffffffffffffffff16908060010154905082565b60006002811115610784577f4e487b7100000000000000000000000000000000000000000000000000000000600052602160045260246000fd5b600d60009054906101000a900460ff1660028111156107cc577f4e487b7100000000000000000000000000000000000000000000000000000000600052602160045260246000fd5b1461080c576040517f08c379a000000000000000000000000000000000000000000000000000000000815260040161080390612b17565b60405180910390fd5b610814610b17565b73ffffffffffffffffffffffffffffffffffffffff163373ffffffffffffffffffffffffffffffffffffffff161415610882576040517f08c379a000000000000000000000000000000000000000000000000000000000815260040161087990612c17565b60405180910390fd5b610896336008611c6490919063ffffffff16565b50565b600d60019054906101000a900460ff1681565b600034116108ef576040517f08c379a00000000000000000000000000000000000000000000000000000000081526004016108e690612bf7565b60405180910390fd5b60006002811115610929577f4e487b7100000000000000000000000000000000000000000000000000000000600052602160045260246000fd5b600d60009054906101000a900460ff166002811115610971577f4e487b7100000000000000000000000000000000000000000000000000000000600052602160045260246000fd5b146109b1576040517f08c379a00000000000000000000000000000000000000000000000000000000081526004016109a890612af7565b60405180910390fd5b34600560008282546109c39190612ce1565b925050819055506001600d60016101000a81548160ff02191690836001811115610a16577f4e487b7100000000000000000000000000000000000000000000000000000000600052602160045260246000fd5b02179055507fe1fffcc4923d04b559f4d29a8bfc6cda04eb5b0d3c460751c2402c5c5cc9109c3334604051610a4c929190612862565b60405180910390a1565b610a5e611a0b565b73ffffffffffffffffffffffffffffffffffffffff16610a7c610b17565b73ffffffffffffffffffffffffffffffffffffffff1614610ad2576040517f08c379a0000000000000000000000000000000000000000000000000000000008152600401610ac990612b77565b60405180910390fd5b610adc6000611c94565b565b60065481565b60106020528060005260406000206000915054906101000a900460ff1681565b600d60029054906101000a900460ff1681565b6000600160009054906101000a900473ffffffffffffffffffffffffffffffffffffffff16905090565b7f000000000000000000000000000000000000000000000000000000000000000073ffffffffffffffffffffffffffffffffffffffff163373ffffffffffffffffffffffffffffffffffffffff1614610bcf576040517f08c379a0000000000000000000000000000000000000000000000000000000008152600401610bc690612b97565b60405180910390fd5b610bd98282611d5a565b5050565b60078181548110610bed57600080fd5b906000526020600020016000915054906101000a900473ffffffffffffffffffffffffffffffffffffffff1681565b610c24611a0b565b73ffffffffffffffffffffffffffffffffffffffff16610c42610b17565b73ffffffffffffffffffffffffffffffffffffffff1614610c98576040517f08c379a0000000000000000000000000000000000000000000000000000000008152600401610c8f90612b77565b60405180910390fd5b8181600082905060008173ffffffffffffffffffffffffffffffffffffffff1663cd53d08e846040518263ffffffff1660e01b8152600401610cda9190612c37565b60206040518083038186803b158015610cf257600080fd5b505afa158015610d06573d6000803e3d6000fd5b505050506040513d601f19601f82011682018060405250810190610d2a9190612320565b90503373ffffffffffffffffffffffffffffffffffffffff168173ffffffffffffffffffffffffffffffffffffffff1614610d9a576040517f08c379a0000000000000000000000000000000000000000000000000000000008152600401610d9190612a97565b60405180910390fd5b60006002811115610dd4577f4e487b7100000000000000000000000000000000000000000000000000000000600052602160045260246000fd5b600d60009054906101000a900460ff166002811115610e1c577f4e487b7100000000000000000000000000000000000000000000000000000000600052602160045260246000fd5b14610e5c576040517f08c379a0000000000000000000000000000000000000000000000000000000008152600401610e5390612af7565b60405180910390fd5b600180811115610e95577f4e487b7100000000000000000000000000000000000000000000000000000000600052602160045260246000fd5b600d60019054906101000a900460ff166001811115610edd577f4e487b7100000000000000000000000000000000000000000000000000000000600052602160045260246000fd5b14610f1d576040517f08c379a0000000000000000000000000000000000000000000000000000000008152600401610f1490612b37565b60405180910390fd5b60405180604001604052808773ffffffffffffffffffffffffffffffffffffffff16815260200186815250600a60008201518160000160006101000a81548173ffffffffffffffffffffffffffffffffffffffff021916908373ffffffffffffffffffffffffffffffffffffffff160217905550602082015181600101559050507fbb95ea0625fc14b282e9600291d48c2952f4f6e378e5d556925b3e2775e50c47868633604051610fd19392919061288b565b60405180910390a1505050505050565b6060600780548060200260200160405190810160405280929190818152602001828054801561106557602002820191906000526020600020905b8160009054906101000a900473ffffffffffffffffffffffffffffffffffffffff1673ffffffffffffffffffffffffffffffffffffffff168152602001906001019080831161101b575b5050505050905090565b6000805b600780549050811015611134573373ffffffffffffffffffffffffffffffffffffffff16600782815481106110d1577f4e487b7100000000000000000000000000000000000000000000000000000000600052603260045260246000fd5b9060005260206000200160009054906101000a900473ffffffffffffffffffffffffffffffffffffffff1673ffffffffffffffffffffffffffffffffffffffff1614156111215760019150611134565b808061112c90612e90565b915050611073565b5080611175576040517f08c379a000000000000000000000000000000000000000000000000000000000815260040161116c90612ab7565b60405180910390fd5b601060003373ffffffffffffffffffffffffffffffffffffffff1673ffffffffffffffffffffffffffffffffffffffff16815260200190815260200160002060009054906101000a900460ff1615611202576040517f08c379a00000000000000000000000000000000000000000000000000000000081526004016111f990612a77565b60405180910390fd5b600f60003373ffffffffffffffffffffffffffffffffffffffff1673ffffffffffffffffffffffffffffffffffffffff16815260200190815260200160002060009054906101000a900460ff1661128e576040517f08c379a000000000000000000000000000000000000000000000000000000000815260040161128590612bb7565b60405180910390fd5b3373ffffffffffffffffffffffffffffffffffffffff166108fc6006549081150290604051600060405180830381858888f193505050501580156112d6573d6000803e3d6000fd5b507fddf252ad1be2c89b69c2b068fc378daa952ba7f163c4a11628f55a4df523b3ef303360065460405161130c9392919061282b565b60405180910390a150565b60006003547f000000000000000000000000000000000000000000000000000000000000000073ffffffffffffffffffffffffffffffffffffffff166370a08231306040518263ffffffff1660e01b81526004016113759190612810565b60206040518083038186803b15801561138d57600080fd5b505afa1580156113a1573d6000803e3d6000fd5b505050506040513d601f19601f820116820180604052508101906113c59190612413565b1015611406576040517f08c379a00000000000000000000000000000000000000000000000000000000081526004016113fd90612ad7565b60405180910390fd5b611414600254600354611de6565b905090565b6000805b6007805490508110156114de573373ffffffffffffffffffffffffffffffffffffffff166007828154811061147b577f4e487b7100000000000000000000000000000000000000000000000000000000600052603260045260246000fd5b9060005260206000200160009054906101000a900473ffffffffffffffffffffffffffffffffffffffff1673ffffffffffffffffffffffffffffffffffffffff1614156114cb57600191506114de565b80806114d690612e90565b91505061141d565b508061151f576040517f08c379a000000000000000000000000000000000000000000000000000000000815260040161151690612ab7565b60405180910390fd5b8282600082905060008173ffffffffffffffffffffffffffffffffffffffff1663cd53d08e846040518263ffffffff1660e01b81526004016115619190612c37565b60206040518083038186803b15801561157957600080fd5b505afa15801561158d573d6000803e3d6000fd5b505050506040513d601f19601f820116820180604052508101906115b19190612320565b90503373ffffffffffffffffffffffffffffffffffffffff168173ffffffffffffffffffffffffffffffffffffffff1614611621576040517f08c379a000000000000000000000000000000000000000000000000000000000815260040161161890612a97565b60405180910390fd5b6001600281111561165b577f4e487b7100000000000000000000000000000000000000000000000000000000600052602160045260246000fd5b600d60009054906101000a900460ff1660028111156116a3577f4e487b7100000000000000000000000000000000000000000000000000000000600052602160045260246000fd5b146116e3576040517f08c379a00000000000000000000000000000000000000000000000000000000081526004016116da90612a17565b60405180910390fd5b60001515600f60003373ffffffffffffffffffffffffffffffffffffffff1673ffffffffffffffffffffffffffffffffffffffff16815260200190815260200160002060009054906101000a900460ff16151514611776576040517f08c379a000000000000000000000000000000000000000000000000000000000815260040161176d90612b57565b60405180910390fd5b600060405180604001604052808973ffffffffffffffffffffffffffffffffffffffff168152602001888152509050600c81908060018154018082558091505060019003906000526020600020906002020160009091909190915060008201518160000160006101000a81548173ffffffffffffffffffffffffffffffffffffffff021916908373ffffffffffffffffffffffffffffffffffffffff1602179055506020820151816001015550506001600f60003373ffffffffffffffffffffffffffffffffffffffff1673ffffffffffffffffffffffffffffffffffffffff16815260200190815260200160002060006101000a81548160ff0219169083151502179055507fbab8d516bcec546662f15a91796c6a575c51b294262b0942f9d17bc60ad65e8c8888336040516118af9392919061288b565b60405180910390a15050505050505050565b6118c9611a0b565b73ffffffffffffffffffffffffffffffffffffffff166118e7610b17565b73ffffffffffffffffffffffffffffffffffffffff161461193d576040517f08c379a000000000000000000000000000000000000000000000000000000000815260040161193490612b77565b60405180910390fd5b600073ffffffffffffffffffffffffffffffffffffffff168173ffffffffffffffffffffffffffffffffffffffff1614156119ad576040517f08c379a00000000000000000000000000000000000000000000000000000000081526004016119a490612a37565b60405180910390fd5b6119b681611c94565b50565b600f6020528060005260406000206000915054906101000a900460ff1681565b600a8060000160009054906101000a900473ffffffffffffffffffffffffffffffffffffffff16908060010154905082565b600033905090565b6000611a2182600001611f45565b9050919050565b611a30611a0b565b73ffffffffffffffffffffffffffffffffffffffff16611a4e610b17565b73ffffffffffffffffffffffffffffffffffffffff1614611aa4576040517f08c379a0000000000000000000000000000000000000000000000000000000008152600401611a9b90612b77565b60405180910390fd5b60006001811115611ade577f4e487b7100000000000000000000000000000000000000000000000000000000600052602160045260246000fd5b600d60029054906101000a900460ff166001811115611b26577f4e487b7100000000000000000000000000000000000000000000000000000000600052602160045260246000fd5b14611b66576040517f08c379a0000000000000000000000000000000000000000000000000000000008152600401611b5d90612a57565b60405180910390fd5b60005b8160078054905014611c60576000611b816008611a13565b60045483604051602001611b96929190612c52565b6040516020818303038152906040528051906020012060001c611bb99190612eed565b90506000611bd1826008611f5690919063ffffffff16565b90506007819080600181540180825580915050600190039060005260206000200160009091909190916101000a81548173ffffffffffffffffffffffffffffffffffffffff021916908373ffffffffffffffffffffffffffffffffffffffff160217905550611c4a816008611f7090919063ffffffff16565b508280611c5690612e90565b9350505050611b69565b5050565b6000611c8c836000018373ffffffffffffffffffffffffffffffffffffffff1660001b611fa0565b905092915050565b6000600160009054906101000a900473ffffffffffffffffffffffffffffffffffffffff16905081600160006101000a81548173ffffffffffffffffffffffffffffffffffffffff021916908373ffffffffffffffffffffffffffffffffffffffff1602179055508173ffffffffffffffffffffffffffffffffffffffff168173ffffffffffffffffffffffffffffffffffffffff167f8be0079c531659141344cd1fd0a4f28419497f9722a3daafe3b4186f6b6457e060405160405180910390a35050565b806004819055506000600d60026101000a81548160ff02191690836001811115611dad577f4e487b7100000000000000000000000000000000000000000000000000000000600052602160045260246000fd5b0217905550600454827f6f62c6f69a8488a6f0dad6cd6eb9be1c8e76ef473be3e71c2f1da0d34d30da3860405160405180910390a35050565b60007f000000000000000000000000000000000000000000000000000000000000000073ffffffffffffffffffffffffffffffffffffffff16634000aea07f000000000000000000000000000000000000000000000000000000000000000084866000604051602001611e5a929190612958565b6040516020818303038152906040526040518463ffffffff1660e01b8152600401611e87939291906128c2565b602060405180830381600087803b158015611ea157600080fd5b505af1158015611eb5573d6000803e3d6000fd5b505050506040513d601f19601f82011682018060405250810190611ed99190612385565b506000611efb8460003060008089815260200190815260200160002054612010565b9050600160008086815260200190815260200160002054611f1c9190612ce1565b60008086815260200190815260200160002081905550611f3c848261204c565b91505092915050565b600081600001805490509050919050565b6000611f65836000018361207f565b60001c905092915050565b6000611f98836000018373ffffffffffffffffffffffffffffffffffffffff1660001b6120d0565b905092915050565b6000611fac8383612256565b61200557826000018290806001815401808255809150506001900390600052602060002001600090919091909150558260000180549050836001016000848152602001908152602001600020819055506001905061200a565b600090505b92915050565b6000848484846040516020016120299493929190612981565b6040516020818303038152906040528051906020012060001c9050949350505050565b600082826040516020016120619291906127e4565b60405160208183030381529060405280519060200120905092915050565b60008260000182815481106120bd577f4e487b7100000000000000000000000000000000000000000000000000000000600052603260045260246000fd5b9060005260206000200154905092915050565b6000808360010160008481526020019081526020016000205490506000811461224a5760006001826121029190612d68565b905060006001866000018054905061211a9190612d68565b90508181146121d5576000866000018281548110612161577f4e487b7100000000000000000000000000000000000000000000000000000000600052603260045260246000fd5b90600052602060002001549050808760000184815481106121ab577f4e487b7100000000000000000000000000000000000000000000000000000000600052603260045260246000fd5b90600052602060002001819055508387600101600083815260200190815260200160002081905550505b8560000180548061220f577f4e487b7100000000000000000000000000000000000000000000000000000000600052603160045260246000fd5b600190038181906000526020600020016000905590558560010160008681526020019081526020016000206000905560019350505050612250565b60009150505b92915050565b600080836001016000848152602001908152602001600020541415905092915050565b60008135905061228881613407565b92915050565b60008151905061229d81613407565b92915050565b6000815190506122b28161341e565b92915050565b6000813590506122c781613435565b92915050565b6000813590506122dc8161344c565b92915050565b6000815190506122f18161344c565b92915050565b60006020828403121561230957600080fd5b600061231784828501612279565b91505092915050565b60006020828403121561233257600080fd5b60006123408482850161228e565b91505092915050565b6000806040838503121561235c57600080fd5b600061236a85828601612279565b925050602061237b858286016122cd565b9150509250929050565b60006020828403121561239757600080fd5b60006123a5848285016122a3565b91505092915050565b600080604083850312156123c157600080fd5b60006123cf858286016122b8565b92505060206123e0858286016122cd565b9150509250929050565b6000602082840312156123fc57600080fd5b600061240a848285016122cd565b91505092915050565b60006020828403121561242557600080fd5b6000612433848285016122e2565b91505092915050565b60006124488383612454565b60208301905092915050565b61245d81612d9c565b82525050565b61246c81612d9c565b82525050565b600061247d82612c8b565b6124878185612cae565b935061249283612c7b565b8060005b838110156124c35781516124aa888261243c565b97506124b583612ca1565b925050600181019050612496565b5085935050505092915050565b6124d981612dae565b82525050565b6124e881612dba565b82525050565b6124ff6124fa82612dba565b612ed9565b82525050565b600061251082612c96565b61251a8185612cbf565b935061252a818560208601612e5d565b61253381612fab565b840191505092915050565b61254781612e27565b82525050565b61255681612e39565b82525050565b61256581612e4b565b82525050565b6000612578602283612cd0565b915061258382612fbc565b604082019050919050565b600061259b602683612cd0565b91506125a68261300b565b604082019050919050565b60006125be602583612cd0565b91506125c98261305a565b604082019050919050565b60006125e1601383612cd0565b91506125ec826130a9565b602082019050919050565b6000612604602283612cd0565b915061260f826130d2565b604082019050919050565b6000612627602283612cd0565b915061263282613121565b604082019050919050565b600061264a602b83612cd0565b915061265582613170565b604082019050919050565b600061266d601b83612cd0565b9150612678826131bf565b602082019050919050565b6000612690602283612cd0565b915061269b826131e8565b604082019050919050565b60006126b3602283612cd0565b91506126be82613237565b604082019050919050565b60006126d6601a83612cd0565b91506126e182613286565b602082019050919050565b60006126f9602083612cd0565b9150612704826132af565b602082019050919050565b600061271c601f83612cd0565b9150612727826132d8565b602082019050919050565b600061273f601e83612cd0565b915061274a82613301565b602082019050919050565b6000612762603a83612cd0565b915061276d8261332a565b604082019050919050565b6000612785601483612cd0565b915061279082613379565b602082019050919050565b60006127a8601a83612cd0565b91506127b3826133a2565b602082019050919050565b6127c781612e1d565b82525050565b6127de6127d982612e1d565b612ee3565b82525050565b60006127f082856124ee565b60208201915061280082846127cd565b6020820191508190509392505050565b60006020820190506128256000830184612463565b92915050565b60006060820190506128406000830186612463565b61284d6020830185612463565b61285a60408301846127be565b949350505050565b60006040820190506128776000830185612463565b61288460208301846127be565b9392505050565b60006060820190506128a06000830186612463565b6128ad60208301856127be565b6128ba6040830184612463565b949350505050565b60006060820190506128d76000830186612463565b6128e460208301856127be565b81810360408301526128f68184612505565b9050949350505050565b6000602082019050818103600083015261291a8184612472565b905092915050565b600060208201905061293760008301846124d0565b92915050565b600060208201905061295260008301846124df565b92915050565b600060408201905061296d60008301856124df565b61297a60208301846127be565b9392505050565b600060808201905061299660008301876124df565b6129a360208301866127be565b6129b06040830185612463565b6129bd60608301846127be565b95945050505050565b60006020820190506129db600083018461253e565b92915050565b60006020820190506129f6600083018461254d565b92915050565b6000602082019050612a11600083018461255c565b92915050565b60006020820190508181036000830152612a308161256b565b9050919050565b60006020820190508181036000830152612a508161258e565b9050919050565b60006020820190508181036000830152612a70816125b1565b9050919050565b60006020820190508181036000830152612a90816125d4565b9050919050565b60006020820190508181036000830152612ab0816125f7565b9050919050565b60006020820190508181036000830152612ad08161261a565b9050919050565b60006020820190508181036000830152612af08161263d565b9050919050565b60006020820190508181036000830152612b1081612660565b9050919050565b60006020820190508181036000830152612b3081612683565b9050919050565b60006020820190508181036000830152612b50816126a6565b9050919050565b60006020820190508181036000830152612b70816126c9565b9050919050565b60006020820190508181036000830152612b90816126ec565b9050919050565b60006020820190508181036000830152612bb08161270f565b9050919050565b60006020820190508181036000830152612bd081612732565b9050919050565b60006020820190508181036000830152612bf081612755565b9050919050565b60006020820190508181036000830152612c1081612778565b9050919050565b60006020820190508181036000830152612c308161279b565b9050919050565b6000602082019050612c4c60008301846127be565b92915050565b6000604082019050612c6760008301856127be565b612c7460208301846127be565b9392505050565b6000819050602082019050919050565b600081519050919050565b600081519050919050565b6000602082019050919050565b600082825260208201905092915050565b600082825260208201905092915050565b600082825260208201905092915050565b6000612cec82612e1d565b9150612cf783612e1d565b9250827fffffffffffffffffffffffffffffffffffffffffffffffffffffffffffffffff03821115612d2c57612d2b612f1e565b5b828201905092915050565b6000612d4282612e1d565b9150612d4d83612e1d565b925082612d5d57612d5c612f4d565b5b828204905092915050565b6000612d7382612e1d565b9150612d7e83612e1d565b925082821015612d9157612d90612f1e565b5b828203905092915050565b6000612da782612dfd565b9050919050565b60008115159050919050565b6000819050919050565b6000819050612dd2826133cb565b919050565b6000819050612de5826133df565b919050565b6000819050612df8826133f3565b919050565b600073ffffffffffffffffffffffffffffffffffffffff82169050919050565b6000819050919050565b6000612e3282612dc4565b9050919050565b6000612e4482612dd7565b9050919050565b6000612e5682612dea565b9050919050565b60005b83811015612e7b578082015181840152602081019050612e60565b83811115612e8a576000848401525b50505050565b6000612e9b82612e1d565b91507fffffffffffffffffffffffffffffffffffffffffffffffffffffffffffffffff821415612ece57612ecd612f1e565b5b600182019050919050565b6000819050919050565b6000819050919050565b6000612ef882612e1d565b9150612f0383612e1d565b925082612f1357612f12612f4d565b5b828206905092915050565b7f4e487b7100000000000000000000000000000000000000000000000000000000600052601160045260246000fd5b7f4e487b7100000000000000000000000000000000000000000000000000000000600052601260045260246000fd5b7f4e487b7100000000000000000000000000000000000000000000000000000000600052602160045260246000fd5b6000601f19601f8301169050919050565b7f7265766965772070726f6365737320686173206e6f742073746172746564207960008201527f6574000000000000000000000000000000000000000000000000000000000000602082015250565b7f4f776e61626c653a206e6577206f776e657220697320746865207a65726f206160008201527f6464726573730000000000000000000000000000000000000000000000000000602082015250565b7f6e6f7420656c656769626c6520666f722072616e646f6d2073656c656374696f60008201527f6e20796574000000000000000000000000000000000000000000000000000000602082015250565b7f796f7520616c726561647920636c61696d656400000000000000000000000000600082015250565b7f6f6e6c79207468652063726561746f722063616e2073656e642061207265766960008201527f6577000000000000000000000000000000000000000000000000000000000000602082015250565b7f7265766965776572206e6f7420696e2073656c6563746564207265766965776560008201527f7273000000000000000000000000000000000000000000000000000000000000602082015250565b7f4e6f7420656e6f756768204c494e4b202d2066696c6c20636f6e74726163742060008201527f7769746820666175636574000000000000000000000000000000000000000000602082015250565b7f6e6f742057616974696e6720666f722073746172742073746174650000000000600082015250565b7f7265766965772070726f636573732068617320616c726561647920737461727460008201527f6564000000000000000000000000000000000000000000000000000000000000602082015250565b7f796f752068617665206e6f74207365747465642074686520726577617264207960008201527f6574000000000000000000000000000000000000000000000000000000000000602082015250565b7f72657669656977657220616c7265616479207375626d69746564000000000000600082015250565b7f4f776e61626c653a2063616c6c6572206973206e6f7420746865206f776e6572600082015250565b7f4f6e6c7920565246436f6f7264696e61746f722063616e2066756c66696c6c00600082015250565b7f796f75206d757374207375626d69742061207265766965772066697273740000600082015250565b7f63616e6e6f742063616c6c207265766965772061737369676e6d656e742c206e60008201527f6f7420656e6f75676820726576696577657273206a6f696e6564000000000000602082015250565b7f736f6d652076616c7565206973206e6565646564000000000000000000000000600082015250565b7f796f752063616e6e6f742072657669657720796f757273656c66000000000000600082015250565b600381106133dc576133db612f7c565b5b50565b600281106133f0576133ef612f7c565b5b50565b6002811061340457613403612f7c565b5b50565b61341081612d9c565b811461341b57600080fd5b50565b61342781612dae565b811461343257600080fd5b50565b61343e81612dba565b811461344957600080fd5b50565b61345581612e1d565b811461346057600080fd5b5056fea26469706673582212203667ca2063dc840ab7627e7d3dab2284c34900a1b20470df6d535ea1170b137e64736f6c63430008040033",
  "linkReferences": {},
  "deployedLinkReferences": {}
}