{
  "_format": "hh-sol-artifact-1",
  "contractName": "ReviewHandler",
  "sourceName": "contracts/ReviewHanlder.sol",
  "abi": [
    {
      "inputs": [
        {
          "internalType": "address",
          "name": "vrfCoordinator",
          "type": "address"
        },
        {
          "internalType": "address",
          "name": "link",
          "type": "address"
        },
        {
          "internalType": "bytes32",
          "name": "keyHash",
          "type": "bytes32"
        },
        {
          "internalType": "uint256",
          "name": "fee",
          "type": "uint256"
        }
      ],
      "stateMutability": "nonpayable",
      "type": "constructor"
    },
    {
      "anonymous": false,
      "inputs": [
        {
          "indexed": false,
          "internalType": "address",
          "name": "sender",
          "type": "address"
        },
        {
          "indexed": false,
          "internalType": "uint256",
          "name": "amount",
          "type": "uint256"
        }
      ],
      "name": "Deposit",
      "type": "event"
    },
    {
      "anonymous": false,
      "inputs": [
        {
          "indexed": true,
          "internalType": "bytes32",
          "name": "requestId",
          "type": "bytes32"
        },
        {
          "indexed": true,
          "internalType": "uint256",
          "name": "result",
          "type": "uint256"
        }
      ],
      "name": "GenratedRandom",
      "type": "event"
    },
    {
      "anonymous": false,
      "inputs": [
        {
          "indexed": true,
          "internalType": "address",
          "name": "previousOwner",
          "type": "address"
        },
        {
          "indexed": true,
          "internalType": "address",
          "name": "newOwner",
          "type": "address"
        }
      ],
      "name": "OwnershipTransferred",
      "type": "event"
    },
    {
      "anonymous": false,
      "inputs": [
        {
          "indexed": false,
          "internalType": "address",
          "name": "nftContract",
          "type": "address"
        },
        {
          "indexed": false,
          "internalType": "uint256",
          "name": "tokenId",
          "type": "uint256"
        },
        {
          "indexed": false,
          "internalType": "address",
          "name": "from",
          "type": "address"
        }
      ],
      "name": "PaperToReviewSetted",
      "type": "event"
    },
    {
      "anonymous": false,
      "inputs": [
        {
          "indexed": true,
          "internalType": "address",
          "name": "reviewer",
          "type": "address"
        }
      ],
      "name": "ReviewValidated",
      "type": "event"
    },
    {
      "anonymous": false,
      "inputs": [
        {
          "indexed": false,
          "internalType": "address",
          "name": "nftContract",
          "type": "address"
        },
        {
          "indexed": false,
          "internalType": "uint256",
          "name": "tokenId",
          "type": "uint256"
        },
        {
          "indexed": false,
          "internalType": "address",
          "name": "from",
          "type": "address"
        }
      ],
      "name": "SentReview",
      "type": "event"
    },
    {
      "anonymous": false,
      "inputs": [
        {
          "indexed": false,
          "internalType": "address",
          "name": "sender",
          "type": "address"
        },
        {
          "indexed": false,
          "internalType": "address",
          "name": "receiver",
          "type": "address"
        },
        {
          "indexed": false,
          "internalType": "uint256",
          "name": "amount",
          "type": "uint256"
        }
      ],
      "name": "Transfer",
      "type": "event"
    },
    {
      "inputs": [],
      "name": "accReward",
      "outputs": [],
      "stateMutability": "payable",
      "type": "function"
    },
    {
      "inputs": [],
      "name": "assignReviewers",
      "outputs": [],
      "stateMutability": "nonpayable",
      "type": "function"
    },
    {
      "inputs": [],
      "name": "claimReward",
      "outputs": [],
      "stateMutability": "nonpayable",
      "type": "function"
    },
    {
      "inputs": [],
      "name": "currentPaidState",
      "outputs": [
        {
          "internalType": "enum ReviewHandler.PaidState",
          "name": "",
          "type": "uint8"
        }
      ],
      "stateMutability": "view",
      "type": "function"
    },
    {
      "inputs": [],
      "name": "currentState",
      "outputs": [
        {
          "internalType": "enum ReviewHandler.ExecutionState",
          "name": "",
          "type": "uint8"
        }
      ],
      "stateMutability": "view",
      "type": "function"
    },
    {
      "inputs": [],
      "name": "getRandomNumber",
      "outputs": [
        {
          "internalType": "bytes32",
          "name": "requestId",
          "type": "bytes32"
        }
      ],
      "stateMutability": "nonpayable",
      "type": "function"
    },
    {
      "inputs": [],
      "name": "getSelectedReviewers",
      "outputs": [
        {
          "internalType": "address[]",
          "name": "",
          "type": "address[]"
        }
      ],
      "stateMutability": "view",
      "type": "function"
    },
    {
      "inputs": [
        {
          "internalType": "address",
          "name": "",
          "type": "address"
        }
      ],
      "name": "hasClaimed",
      "outputs": [
        {
          "internalType": "bool",
          "name": "",
          "type": "bool"
        }
      ],
      "stateMutability": "view",
      "type": "function"
    },
    {
      "inputs": [
        {
          "internalType": "address",
          "name": "",
          "type": "address"
        }
      ],
      "name": "hasSubmited",
      "outputs": [
        {
          "internalType": "bool",
          "name": "",
          "type": "bool"
        }
      ],
      "stateMutability": "view",
      "type": "function"
    },
    {
      "inputs": [],
      "name": "individualReward",
      "outputs": [
        {
          "internalType": "uint256",
          "name": "",
          "type": "uint256"
        }
      ],
      "stateMutability": "view",
      "type": "function"
    },
    {
      "inputs": [],
      "name": "isvalid",
      "outputs": [
        {
          "internalType": "enum ReviewHandler.ValidateRandom",
          "name": "",
          "type": "uint8"
        }
      ],
      "stateMutability": "view",
      "type": "function"
    },
    {
      "inputs": [],
      "name": "joinAsReviewer",
      "outputs": [],
      "stateMutability": "nonpayable",
      "type": "function"
    },
    {
      "inputs": [],
      "name": "owner",
      "outputs": [
        {
          "internalType": "address",
          "name": "",
          "type": "address"
        }
      ],
      "stateMutability": "view",
      "type": "function"
    },
    {
      "inputs": [],
      "name": "paper",
      "outputs": [
        {
          "internalType": "address",
          "name": "nft",
          "type": "address"
        },
        {
          "internalType": "uint256",
          "name": "tokenId",
          "type": "uint256"
        }
      ],
      "stateMutability": "view",
      "type": "function"
    },
    {
      "inputs": [],
      "name": "randomValue",
      "outputs": [
        {
          "internalType": "uint256",
          "name": "",
          "type": "uint256"
        }
      ],
      "stateMutability": "view",
      "type": "function"
    },
    {
      "inputs": [
        {
          "internalType": "bytes32",
          "name": "requestId",
          "type": "bytes32"
        },
        {
          "internalType": "uint256",
          "name": "randomness",
          "type": "uint256"
        }
      ],
      "name": "rawFulfillRandomness",
      "outputs": [],
      "stateMutability": "nonpayable",
      "type": "function"
    },
    {
      "inputs": [],
      "name": "renounceOwnership",
      "outputs": [],
      "stateMutability": "nonpayable",
      "type": "function"
    },
    {
      "inputs": [
        {
          "internalType": "uint256",
          "name": "",
          "type": "uint256"
        }
      ],
      "name": "reviewPapers",
      "outputs": [
        {
          "internalType": "address",
          "name": "nft",
          "type": "address"
        },
        {
          "internalType": "uint256",
          "name": "tokenId",
          "type": "uint256"
        }
      ],
      "stateMutability": "view",
      "type": "function"
    },
    {
      "inputs": [
        {
          "internalType": "address",
          "name": "",
          "type": "address"
        }
      ],
      "name": "reviewValidated",
      "outputs": [
        {
          "internalType": "bool",
          "name": "",
          "type": "bool"
        }
      ],
      "stateMutability": "view",
      "type": "function"
    },
    {
      "inputs": [],
      "name": "reward",
      "outputs": [
        {
          "internalType": "uint256",
          "name": "",
          "type": "uint256"
        }
      ],
      "stateMutability": "view",
      "type": "function"
    },
    {
      "inputs": [
        {
          "internalType": "uint256",
          "name": "",
          "type": "uint256"
        }
      ],
      "name": "selectedReviewers",
      "outputs": [
        {
          "internalType": "address",
          "name": "",
          "type": "address"
        }
      ],
      "stateMutability": "view",
      "type": "function"
    },
    {
      "inputs": [
        {
          "internalType": "address",
          "name": "_nftContract",
          "type": "address"
        },
        {
          "internalType": "uint256",
          "name": "_tokenId",
          "type": "uint256"
        }
      ],
      "name": "sendReview",
      "outputs": [],
      "stateMutability": "nonpayable",
      "type": "function"
    },
    {
      "inputs": [
        {
          "internalType": "uint256",
          "name": "",
          "type": "uint256"
        }
      ],
      "name": "sentReviews",
      "outputs": [
        {
          "internalType": "address",
          "name": "",
          "type": "address"
        }
      ],
      "stateMutability": "view",
      "type": "function"
    },
    {
      "inputs": [
        {
          "internalType": "address",
          "name": "_nftContract",
          "type": "address"
        },
        {
          "internalType": "uint256",
          "name": "_tokenId",
          "type": "uint256"
        }
      ],
      "name": "setPaperToReview",
      "outputs": [],
      "stateMutability": "nonpayable",
      "type": "function"
    },
    {
      "inputs": [
        {
          "internalType": "address",
          "name": "newOwner",
          "type": "address"
        }
      ],
      "name": "transferOwnership",
      "outputs": [],
      "stateMutability": "nonpayable",
      "type": "function"
    },
    {
      "inputs": [
        {
          "internalType": "address",
          "name": "_reviewer",
          "type": "address"
        }
      ],
      "name": "validateReview",
      "outputs": [],
      "stateMutability": "nonpayable",
      "type": "function"
    }
  ],
  "bytecode": "0x60c06040523480156200001157600080fd5b5060405162003bb338038062003bb38339818101604052810190620000379190620002ea565b83838173ffffffffffffffffffffffffffffffffffffffff1660a08173ffffffffffffffffffffffffffffffffffffffff1660601b815250508073ffffffffffffffffffffffffffffffffffffffff1660808173ffffffffffffffffffffffffffffffffffffffff1660601b815250505050620000c9620000bd620001d760201b60201c565b620001df60201b60201c565b81600281905550806003819055506001600d60026101000a81548160ff0219169083600181111562000124577f4e487b7100000000000000000000000000000000000000000000000000000000600052602160045260246000fd5b02179055506000600d60006101000a81548160ff0219169083600281111562000176577f4e487b7100000000000000000000000000000000000000000000000000000000600052602160045260246000fd5b02179055506000600d60016101000a81548160ff02191690836001811115620001c8577f4e487b7100000000000000000000000000000000000000000000000000000000600052602160045260246000fd5b021790555050505050620003ec565b600033905090565b6000600160009054906101000a900473ffffffffffffffffffffffffffffffffffffffff16905081600160006101000a81548173ffffffffffffffffffffffffffffffffffffffff021916908373ffffffffffffffffffffffffffffffffffffffff1602179055508173ffffffffffffffffffffffffffffffffffffffff168173ffffffffffffffffffffffffffffffffffffffff167f8be0079c531659141344cd1fd0a4f28419497f9722a3daafe3b4186f6b6457e060405160405180910390a35050565b600081519050620002b6816200039e565b92915050565b600081519050620002cd81620003b8565b92915050565b600081519050620002e481620003d2565b92915050565b600080600080608085870312156200030157600080fd5b60006200031187828801620002a5565b94505060206200032487828801620002a5565b93505060406200033787828801620002bc565b92505060606200034a87828801620002d3565b91505092959194509250565b6000620003638262000374565b9050919050565b6000819050919050565b600073ffffffffffffffffffffffffffffffffffffffff82169050919050565b6000819050919050565b620003a98162000356565b8114620003b557600080fd5b50565b620003c3816200036a565b8114620003cf57600080fd5b50565b620003dd8162000394565b8114620003e957600080fd5b50565b60805160601c60a05160601c61378d6200042660003960008181610d190152612088015260008181611580015261204c015261378d6000f3fe6080604052600436106101815760003560e01c806373b2e80e116100d1578063a7aba64b1161008a578063ef622d3611610064578063ef622d361461051c578063f2fde38b14610545578063f546756c1461056e578063f8c587ac146105ab57610181565b8063a7aba64b146104af578063b88a802f146104da578063dbdff2c1146104f157610181565b806373b2e80e1461038d57806383d0c510146103ca5780638da5cb5b146103f557806394985ddd1461042057806398ad928214610449578063a0427aad1461048657610181565b806339f2d5af1161013e578063645a89bf11610118578063645a89bf146102e55780636d0efd7f1461030e578063715018a61461034b578063724b3dfc1461036257610181565b806339f2d5af146102995780634d80f0fd146102b0578063562975cb146102db57610181565b806304a19b3a146101865780630c3f6acf146101c35780631b00ac45146101ee578063228cb73314610205578063276801ec1461023057806333d3a3db1461025b575b600080fd5b34801561019257600080fd5b506101ad60048036038101906101a8919061264c565b6105d7565b6040516101ba9190612a95565b60405180910390f35b3480156101cf57600080fd5b506101d8610616565b6040516101e59190612c4b565b60405180910390f35b3480156101fa57600080fd5b50610203610629565b005b34801561021157600080fd5b5061021a610786565b6040516102279190612edc565b60405180910390f35b34801561023c57600080fd5b5061024561078c565b6040516102529190612edc565b60405180910390f35b34801561026757600080fd5b50610282600480360381019061027d919061264c565b610792565b604051610290929190612ae7565b60405180910390f35b3480156102a557600080fd5b506102ae6107e6565b005b3480156102bc57600080fd5b506102c5610935565b6040516102d29190612c66565b60405180910390f35b6102e3610948565b005b3480156102f157600080fd5b5061030c60048036038101906103079190612559565b610af2565b005b34801561031a57600080fd5b5061033560048036038101906103309190612559565b610c0c565b6040516103429190612ba7565b60405180910390f35b34801561035757600080fd5b50610360610c2c565b005b34801561036e57600080fd5b50610377610cb4565b6040516103849190612edc565b60405180910390f35b34801561039957600080fd5b506103b460048036038101906103af9190612559565b610cba565b6040516103c19190612ba7565b60405180910390f35b3480156103d657600080fd5b506103df610cda565b6040516103ec9190612c81565b60405180910390f35b34801561040157600080fd5b5061040a610ced565b6040516104179190612a95565b60405180910390f35b34801561042c57600080fd5b5061044760048036038101906104429190612610565b610d17565b005b34801561045557600080fd5b50610470600480360381019061046b919061264c565b610db3565b60405161047d9190612a95565b60405180910390f35b34801561049257600080fd5b506104ad60048036038101906104a891906125ab565b610df2565b005b3480156104bb57600080fd5b506104c46111b7565b6040516104d19190612b85565b60405180910390f35b3480156104e657600080fd5b506104ef611245565b005b3480156104fd57600080fd5b50610506611579565b6040516105139190612bc2565b60405180910390f35b34801561052857600080fd5b50610543600480360381019061053e91906125ab565b61167b565b005b34801561055157600080fd5b5061056c60048036038101906105679190612559565b611b23565b005b34801561057a57600080fd5b5061059560048036038101906105909190612559565b611c1b565b6040516105a29190612ba7565b60405180910390f35b3480156105b757600080fd5b506105c0611c3b565b6040516105ce929190612ae7565b60405180910390f35b600e81815481106105e757600080fd5b906000526020600020016000915054906101000a900473ffffffffffffffffffffffffffffffffffffffff1681565b600d60009054906101000a900460ff1681565b610631611c6d565b73ffffffffffffffffffffffffffffffffffffffff1661064f610ced565b73ffffffffffffffffffffffffffffffffffffffff16146106a5576040517f08c379a000000000000000000000000000000000000000000000000000000000815260040161069c90612e1c565b60405180910390fd5b60056106b16008611c75565b10156106f2576040517f08c379a00000000000000000000000000000000000000000000000000000000081526004016106e990612e7c565b60405180910390fd5b6001600d60006101000a81548160ff0219169083600281111561073e577f4e487b7100000000000000000000000000000000000000000000000000000000600052602160045260246000fd5b021790555060006002600480546107559190613192565b61075f9190612f86565b905061076a81611c8a565b60078054905060055461077d9190612fdc565b60068190555050565b60055481565b60045481565b600c81815481106107a257600080fd5b90600052602060002090600202016000915090508060000160009054906101000a900473ffffffffffffffffffffffffffffffffffffffff16908060010154905082565b60006002811115610820577f4e487b7100000000000000000000000000000000000000000000000000000000600052602160045260246000fd5b600d60009054906101000a900460ff166002811115610868577f4e487b7100000000000000000000000000000000000000000000000000000000600052602160045260246000fd5b146108a8576040517f08c379a000000000000000000000000000000000000000000000000000000000815260040161089f90612dbc565b60405180910390fd5b6108b0610ced565b73ffffffffffffffffffffffffffffffffffffffff163373ffffffffffffffffffffffffffffffffffffffff16141561091e576040517f08c379a000000000000000000000000000000000000000000000000000000000815260040161091590612ebc565b60405180910390fd5b610932336008611ec690919063ffffffff16565b50565b600d60019054906101000a900460ff1681565b6000341161098b576040517f08c379a000000000000000000000000000000000000000000000000000000000815260040161098290612e9c565b60405180910390fd5b600060028111156109c5577f4e487b7100000000000000000000000000000000000000000000000000000000600052602160045260246000fd5b600d60009054906101000a900460ff166002811115610a0d577f4e487b7100000000000000000000000000000000000000000000000000000000600052602160045260246000fd5b14610a4d576040517f08c379a0000000000000000000000000000000000000000000000000000000008152600401610a4490612d7c565b60405180910390fd5b3460056000828254610a5f9190612f86565b925050819055506001600d60016101000a81548160ff02191690836001811115610ab2577f4e487b7100000000000000000000000000000000000000000000000000000000600052602160045260246000fd5b02179055507fe1fffcc4923d04b559f4d29a8bfc6cda04eb5b0d3c460751c2402c5c5cc9109c3334604051610ae8929190612ae7565b60405180910390a1565b610afa611c6d565b73ffffffffffffffffffffffffffffffffffffffff16610b18610ced565b73ffffffffffffffffffffffffffffffffffffffff1614610b6e576040517f08c379a0000000000000000000000000000000000000000000000000000000008152600401610b6590612e1c565b60405180910390fd5b6001601160008373ffffffffffffffffffffffffffffffffffffffff1673ffffffffffffffffffffffffffffffffffffffff16815260200190815260200160002060006101000a81548160ff0219169083151502179055508073ffffffffffffffffffffffffffffffffffffffff167ff355933f56a6359337ed0f066e2cf819302de6706fdc7d0a188ea89ef1e702a260405160405180910390a250565b60116020528060005260406000206000915054906101000a900460ff1681565b610c34611c6d565b73ffffffffffffffffffffffffffffffffffffffff16610c52610ced565b73ffffffffffffffffffffffffffffffffffffffff1614610ca8576040517f08c379a0000000000000000000000000000000000000000000000000000000008152600401610c9f90612e1c565b60405180910390fd5b610cb26000611ef6565b565b60065481565b60106020528060005260406000206000915054906101000a900460ff1681565b600d60029054906101000a900460ff1681565b6000600160009054906101000a900473ffffffffffffffffffffffffffffffffffffffff16905090565b7f000000000000000000000000000000000000000000000000000000000000000073ffffffffffffffffffffffffffffffffffffffff163373ffffffffffffffffffffffffffffffffffffffff1614610da5576040517f08c379a0000000000000000000000000000000000000000000000000000000008152600401610d9c90612e3c565b60405180910390fd5b610daf8282611fbc565b5050565b60078181548110610dc357600080fd5b906000526020600020016000915054906101000a900473ffffffffffffffffffffffffffffffffffffffff1681565b610dfa611c6d565b73ffffffffffffffffffffffffffffffffffffffff16610e18610ced565b73ffffffffffffffffffffffffffffffffffffffff1614610e6e576040517f08c379a0000000000000000000000000000000000000000000000000000000008152600401610e6590612e1c565b60405180910390fd5b8181600082905060008173ffffffffffffffffffffffffffffffffffffffff1663cd53d08e846040518263ffffffff1660e01b8152600401610eb09190612edc565b60206040518083038186803b158015610ec857600080fd5b505afa158015610edc573d6000803e3d6000fd5b505050506040513d601f19601f82011682018060405250810190610f009190612582565b90503373ffffffffffffffffffffffffffffffffffffffff168173ffffffffffffffffffffffffffffffffffffffff1614610f70576040517f08c379a0000000000000000000000000000000000000000000000000000000008152600401610f6790612d1c565b60405180910390fd5b60006002811115610faa577f4e487b7100000000000000000000000000000000000000000000000000000000600052602160045260246000fd5b600d60009054906101000a900460ff166002811115610ff2577f4e487b7100000000000000000000000000000000000000000000000000000000600052602160045260246000fd5b14611032576040517f08c379a000000000000000000000000000000000000000000000000000000000815260040161102990612d7c565b60405180910390fd5b60018081111561106b577f4e487b7100000000000000000000000000000000000000000000000000000000600052602160045260246000fd5b600d60019054906101000a900460ff1660018111156110b3577f4e487b7100000000000000000000000000000000000000000000000000000000600052602160045260246000fd5b146110f3576040517f08c379a00000000000000000000000000000000000000000000000000000000081526004016110ea90612ddc565b60405180910390fd5b60405180604001604052808773ffffffffffffffffffffffffffffffffffffffff16815260200186815250600a60008201518160000160006101000a81548173ffffffffffffffffffffffffffffffffffffffff021916908373ffffffffffffffffffffffffffffffffffffffff160217905550602082015181600101559050507fbb95ea0625fc14b282e9600291d48c2952f4f6e378e5d556925b3e2775e50c478686336040516111a793929190612b10565b60405180910390a1505050505050565b6060600780548060200260200160405190810160405280929190818152602001828054801561123b57602002820191906000526020600020905b8160009054906101000a900473ffffffffffffffffffffffffffffffffffffffff1673ffffffffffffffffffffffffffffffffffffffff16815260200190600101908083116111f1575b5050505050905090565b6000805b60078054905081101561130a573373ffffffffffffffffffffffffffffffffffffffff16600782815481106112a7577f4e487b7100000000000000000000000000000000000000000000000000000000600052603260045260246000fd5b9060005260206000200160009054906101000a900473ffffffffffffffffffffffffffffffffffffffff1673ffffffffffffffffffffffffffffffffffffffff1614156112f7576001915061130a565b808061130290613135565b915050611249565b508061134b576040517f08c379a000000000000000000000000000000000000000000000000000000000815260040161134290612d3c565b60405180910390fd5b601060003373ffffffffffffffffffffffffffffffffffffffff1673ffffffffffffffffffffffffffffffffffffffff16815260200190815260200160002060009054906101000a900460ff16156113d8576040517f08c379a00000000000000000000000000000000000000000000000000000000081526004016113cf90612cfc565b60405180910390fd5b600f60003373ffffffffffffffffffffffffffffffffffffffff1673ffffffffffffffffffffffffffffffffffffffff16815260200190815260200160002060009054906101000a900460ff16611464576040517f08c379a000000000000000000000000000000000000000000000000000000000815260040161145b90612e5c565b60405180910390fd5b601160003373ffffffffffffffffffffffffffffffffffffffff1673ffffffffffffffffffffffffffffffffffffffff16815260200190815260200160002060009054906101000a900460ff166114f0576040517f08c379a00000000000000000000000000000000000000000000000000000000081526004016114e790612d9c565b60405180910390fd5b3373ffffffffffffffffffffffffffffffffffffffff166108fc6006549081150290604051600060405180830381858888f19350505050158015611538573d6000803e3d6000fd5b507fddf252ad1be2c89b69c2b068fc378daa952ba7f163c4a11628f55a4df523b3ef303360065460405161156e93929190612ab0565b60405180910390a150565b60006003547f000000000000000000000000000000000000000000000000000000000000000073ffffffffffffffffffffffffffffffffffffffff166370a08231306040518263ffffffff1660e01b81526004016115d79190612a95565b60206040518083038186803b1580156115ef57600080fd5b505afa158015611603573d6000803e3d6000fd5b505050506040513d601f19601f820116820180604052508101906116279190612675565b1015611668576040517f08c379a000000000000000000000000000000000000000000000000000000000815260040161165f90612d5c565b60405180910390fd5b611676600254600354612048565b905090565b6000805b600780549050811015611740573373ffffffffffffffffffffffffffffffffffffffff16600782815481106116dd577f4e487b7100000000000000000000000000000000000000000000000000000000600052603260045260246000fd5b9060005260206000200160009054906101000a900473ffffffffffffffffffffffffffffffffffffffff1673ffffffffffffffffffffffffffffffffffffffff16141561172d5760019150611740565b808061173890613135565b91505061167f565b5080611781576040517f08c379a000000000000000000000000000000000000000000000000000000000815260040161177890612d3c565b60405180910390fd5b8282600082905060008173ffffffffffffffffffffffffffffffffffffffff1663cd53d08e846040518263ffffffff1660e01b81526004016117c39190612edc565b60206040518083038186803b1580156117db57600080fd5b505afa1580156117ef573d6000803e3d6000fd5b505050506040513d601f19601f820116820180604052508101906118139190612582565b90503373ffffffffffffffffffffffffffffffffffffffff168173ffffffffffffffffffffffffffffffffffffffff1614611883576040517f08c379a000000000000000000000000000000000000000000000000000000000815260040161187a90612d1c565b60405180910390fd5b600160028111156118bd577f4e487b7100000000000000000000000000000000000000000000000000000000600052602160045260246000fd5b600d60009054906101000a900460ff166002811115611905577f4e487b7100000000000000000000000000000000000000000000000000000000600052602160045260246000fd5b14611945576040517f08c379a000000000000000000000000000000000000000000000000000000000815260040161193c90612c9c565b60405180910390fd5b60001515600f60003373ffffffffffffffffffffffffffffffffffffffff1673ffffffffffffffffffffffffffffffffffffffff16815260200190815260200160002060009054906101000a900460ff161515146119d8576040517f08c379a00000000000000000000000000000000000000000000000000000000081526004016119cf90612dfc565b60405180910390fd5b600060405180604001604052808973ffffffffffffffffffffffffffffffffffffffff168152602001888152509050600c81908060018154018082558091505060019003906000526020600020906002020160009091909190915060008201518160000160006101000a81548173ffffffffffffffffffffffffffffffffffffffff021916908373ffffffffffffffffffffffffffffffffffffffff1602179055506020820151816001015550506001600f60003373ffffffffffffffffffffffffffffffffffffffff1673ffffffffffffffffffffffffffffffffffffffff16815260200190815260200160002060006101000a81548160ff0219169083151502179055507fbab8d516bcec546662f15a91796c6a575c51b294262b0942f9d17bc60ad65e8c888833604051611b1193929190612b10565b60405180910390a15050505050505050565b611b2b611c6d565b73ffffffffffffffffffffffffffffffffffffffff16611b49610ced565b73ffffffffffffffffffffffffffffffffffffffff1614611b9f576040517f08c379a0000000000000000000000000000000000000000000000000000000008152600401611b9690612e1c565b60405180910390fd5b600073ffffffffffffffffffffffffffffffffffffffff168173ffffffffffffffffffffffffffffffffffffffff161415611c0f576040517f08c379a0000000000000000000000000000000000000000000000000000000008152600401611c0690612cbc565b60405180910390fd5b611c1881611ef6565b50565b600f6020528060005260406000206000915054906101000a900460ff1681565b600a8060000160009054906101000a900473ffffffffffffffffffffffffffffffffffffffff16908060010154905082565b600033905090565b6000611c83826000016121a7565b9050919050565b611c92611c6d565b73ffffffffffffffffffffffffffffffffffffffff16611cb0610ced565b73ffffffffffffffffffffffffffffffffffffffff1614611d06576040517f08c379a0000000000000000000000000000000000000000000000000000000008152600401611cfd90612e1c565b60405180910390fd5b60006001811115611d40577f4e487b7100000000000000000000000000000000000000000000000000000000600052602160045260246000fd5b600d60029054906101000a900460ff166001811115611d88577f4e487b7100000000000000000000000000000000000000000000000000000000600052602160045260246000fd5b14611dc8576040517f08c379a0000000000000000000000000000000000000000000000000000000008152600401611dbf90612cdc565b60405180910390fd5b60005b8160078054905014611ec2576000611de36008611c75565b60045483604051602001611df8929190612ef7565b6040516020818303038152906040528051906020012060001c611e1b9190613192565b90506000611e338260086121b890919063ffffffff16565b90506007819080600181540180825580915050600190039060005260206000200160009091909190916101000a81548173ffffffffffffffffffffffffffffffffffffffff021916908373ffffffffffffffffffffffffffffffffffffffff160217905550611eac8160086121d290919063ffffffff16565b508280611eb890613135565b9350505050611dcb565b5050565b6000611eee836000018373ffffffffffffffffffffffffffffffffffffffff1660001b612202565b905092915050565b6000600160009054906101000a900473ffffffffffffffffffffffffffffffffffffffff16905081600160006101000a81548173ffffffffffffffffffffffffffffffffffffffff021916908373ffffffffffffffffffffffffffffffffffffffff1602179055508173ffffffffffffffffffffffffffffffffffffffff168173ffffffffffffffffffffffffffffffffffffffff167f8be0079c531659141344cd1fd0a4f28419497f9722a3daafe3b4186f6b6457e060405160405180910390a35050565b806004819055506000600d60026101000a81548160ff0219169083600181111561200f577f4e487b7100000000000000000000000000000000000000000000000000000000600052602160045260246000fd5b0217905550600454827f6f62c6f69a8488a6f0dad6cd6eb9be1c8e76ef473be3e71c2f1da0d34d30da3860405160405180910390a35050565b60007f000000000000000000000000000000000000000000000000000000000000000073ffffffffffffffffffffffffffffffffffffffff16634000aea07f0000000000000000000000000000000000000000000000000000000000000000848660006040516020016120bc929190612bdd565b6040516020818303038152906040526040518463ffffffff1660e01b81526004016120e993929190612b47565b602060405180830381600087803b15801561210357600080fd5b505af1158015612117573d6000803e3d6000fd5b505050506040513d601f19601f8201168201806040525081019061213b91906125e7565b50600061215d8460003060008089815260200190815260200160002054612272565b905060016000808681526020019081526020016000205461217e9190612f86565b6000808681526020019081526020016000208190555061219e84826122ae565b91505092915050565b600081600001805490509050919050565b60006121c783600001836122e1565b60001c905092915050565b60006121fa836000018373ffffffffffffffffffffffffffffffffffffffff1660001b612332565b905092915050565b600061220e83836124b8565b61226757826000018290806001815401808255809150506001900390600052602060002001600090919091909150558260000180549050836001016000848152602001908152602001600020819055506001905061226c565b600090505b92915050565b60008484848460405160200161228b9493929190612c06565b6040516020818303038152906040528051906020012060001c9050949350505050565b600082826040516020016122c3929190612a69565b60405160208183030381529060405280519060200120905092915050565b600082600001828154811061231f577f4e487b7100000000000000000000000000000000000000000000000000000000600052603260045260246000fd5b9060005260206000200154905092915050565b600080836001016000848152602001908152602001600020549050600081146124ac576000600182612364919061300d565b905060006001866000018054905061237c919061300d565b90508181146124375760008660000182815481106123c3577f4e487b7100000000000000000000000000000000000000000000000000000000600052603260045260246000fd5b906000526020600020015490508087600001848154811061240d577f4e487b7100000000000000000000000000000000000000000000000000000000600052603260045260246000fd5b90600052602060002001819055508387600101600083815260200190815260200160002081905550505b85600001805480612471577f4e487b7100000000000000000000000000000000000000000000000000000000600052603160045260246000fd5b6001900381819060005260206000200160009055905585600101600086815260200190815260200160002060009055600193505050506124b2565b60009150505b92915050565b600080836001016000848152602001908152602001600020541415905092915050565b6000813590506124ea816136fb565b92915050565b6000815190506124ff816136fb565b92915050565b60008151905061251481613712565b92915050565b60008135905061252981613729565b92915050565b60008135905061253e81613740565b92915050565b60008151905061255381613740565b92915050565b60006020828403121561256b57600080fd5b6000612579848285016124db565b91505092915050565b60006020828403121561259457600080fd5b60006125a2848285016124f0565b91505092915050565b600080604083850312156125be57600080fd5b60006125cc858286016124db565b92505060206125dd8582860161252f565b9150509250929050565b6000602082840312156125f957600080fd5b600061260784828501612505565b91505092915050565b6000806040838503121561262357600080fd5b60006126318582860161251a565b92505060206126428582860161252f565b9150509250929050565b60006020828403121561265e57600080fd5b600061266c8482850161252f565b91505092915050565b60006020828403121561268757600080fd5b600061269584828501612544565b91505092915050565b60006126aa83836126b6565b60208301905092915050565b6126bf81613041565b82525050565b6126ce81613041565b82525050565b60006126df82612f30565b6126e98185612f53565b93506126f483612f20565b8060005b8381101561272557815161270c888261269e565b975061271783612f46565b9250506001810190506126f8565b5085935050505092915050565b61273b81613053565b82525050565b61274a8161305f565b82525050565b61276161275c8261305f565b61317e565b82525050565b600061277282612f3b565b61277c8185612f64565b935061278c818560208601613102565b61279581613250565b840191505092915050565b6127a9816130cc565b82525050565b6127b8816130de565b82525050565b6127c7816130f0565b82525050565b60006127da602283612f75565b91506127e582613261565b604082019050919050565b60006127fd602683612f75565b9150612808826132b0565b604082019050919050565b6000612820602583612f75565b915061282b826132ff565b604082019050919050565b6000612843601383612f75565b915061284e8261334e565b602082019050919050565b6000612866602283612f75565b915061287182613377565b604082019050919050565b6000612889602283612f75565b9150612894826133c6565b604082019050919050565b60006128ac602b83612f75565b91506128b782613415565b604082019050919050565b60006128cf601b83612f75565b91506128da82613464565b602082019050919050565b60006128f2602783612f75565b91506128fd8261348d565b604082019050919050565b6000612915602283612f75565b9150612920826134dc565b604082019050919050565b6000612938602283612f75565b91506129438261352b565b604082019050919050565b600061295b601a83612f75565b91506129668261357a565b602082019050919050565b600061297e602083612f75565b9150612989826135a3565b602082019050919050565b60006129a1601f83612f75565b91506129ac826135cc565b602082019050919050565b60006129c4601e83612f75565b91506129cf826135f5565b602082019050919050565b60006129e7603a83612f75565b91506129f28261361e565b604082019050919050565b6000612a0a601483612f75565b9150612a158261366d565b602082019050919050565b6000612a2d601a83612f75565b9150612a3882613696565b602082019050919050565b612a4c816130c2565b82525050565b612a63612a5e826130c2565b613188565b82525050565b6000612a758285612750565b602082019150612a858284612a52565b6020820191508190509392505050565b6000602082019050612aaa60008301846126c5565b92915050565b6000606082019050612ac560008301866126c5565b612ad260208301856126c5565b612adf6040830184612a43565b949350505050565b6000604082019050612afc60008301856126c5565b612b096020830184612a43565b9392505050565b6000606082019050612b2560008301866126c5565b612b326020830185612a43565b612b3f60408301846126c5565b949350505050565b6000606082019050612b5c60008301866126c5565b612b696020830185612a43565b8181036040830152612b7b8184612767565b9050949350505050565b60006020820190508181036000830152612b9f81846126d4565b905092915050565b6000602082019050612bbc6000830184612732565b92915050565b6000602082019050612bd76000830184612741565b92915050565b6000604082019050612bf26000830185612741565b612bff6020830184612a43565b9392505050565b6000608082019050612c1b6000830187612741565b612c286020830186612a43565b612c3560408301856126c5565b612c426060830184612a43565b95945050505050565b6000602082019050612c6060008301846127a0565b92915050565b6000602082019050612c7b60008301846127af565b92915050565b6000602082019050612c9660008301846127be565b92915050565b60006020820190508181036000830152612cb5816127cd565b9050919050565b60006020820190508181036000830152612cd5816127f0565b9050919050565b60006020820190508181036000830152612cf581612813565b9050919050565b60006020820190508181036000830152612d1581612836565b9050919050565b60006020820190508181036000830152612d3581612859565b9050919050565b60006020820190508181036000830152612d558161287c565b9050919050565b60006020820190508181036000830152612d758161289f565b9050919050565b60006020820190508181036000830152612d95816128c2565b9050919050565b60006020820190508181036000830152612db5816128e5565b9050919050565b60006020820190508181036000830152612dd581612908565b9050919050565b60006020820190508181036000830152612df58161292b565b9050919050565b60006020820190508181036000830152612e158161294e565b9050919050565b60006020820190508181036000830152612e3581612971565b9050919050565b60006020820190508181036000830152612e5581612994565b9050919050565b60006020820190508181036000830152612e75816129b7565b9050919050565b60006020820190508181036000830152612e95816129da565b9050919050565b60006020820190508181036000830152612eb5816129fd565b9050919050565b60006020820190508181036000830152612ed581612a20565b9050919050565b6000602082019050612ef16000830184612a43565b92915050565b6000604082019050612f0c6000830185612a43565b612f196020830184612a43565b9392505050565b6000819050602082019050919050565b600081519050919050565b600081519050919050565b6000602082019050919050565b600082825260208201905092915050565b600082825260208201905092915050565b600082825260208201905092915050565b6000612f91826130c2565b9150612f9c836130c2565b9250827fffffffffffffffffffffffffffffffffffffffffffffffffffffffffffffffff03821115612fd157612fd06131c3565b5b828201905092915050565b6000612fe7826130c2565b9150612ff2836130c2565b925082613002576130016131f2565b5b828204905092915050565b6000613018826130c2565b9150613023836130c2565b925082821015613036576130356131c3565b5b828203905092915050565b600061304c826130a2565b9050919050565b60008115159050919050565b6000819050919050565b6000819050613077826136bf565b919050565b600081905061308a826136d3565b919050565b600081905061309d826136e7565b919050565b600073ffffffffffffffffffffffffffffffffffffffff82169050919050565b6000819050919050565b60006130d782613069565b9050919050565b60006130e98261307c565b9050919050565b60006130fb8261308f565b9050919050565b60005b83811015613120578082015181840152602081019050613105565b8381111561312f576000848401525b50505050565b6000613140826130c2565b91507fffffffffffffffffffffffffffffffffffffffffffffffffffffffffffffffff821415613173576131726131c3565b5b600182019050919050565b6000819050919050565b6000819050919050565b600061319d826130c2565b91506131a8836130c2565b9250826131b8576131b76131f2565b5b828206905092915050565b7f4e487b7100000000000000000000000000000000000000000000000000000000600052601160045260246000fd5b7f4e487b7100000000000000000000000000000000000000000000000000000000600052601260045260246000fd5b7f4e487b7100000000000000000000000000000000000000000000000000000000600052602160045260246000fd5b6000601f19601f8301169050919050565b7f7265766965772070726f6365737320686173206e6f742073746172746564207960008201527f6574000000000000000000000000000000000000000000000000000000000000602082015250565b7f4f776e61626c653a206e6577206f776e657220697320746865207a65726f206160008201527f6464726573730000000000000000000000000000000000000000000000000000602082015250565b7f6e6f7420656c656769626c6520666f722072616e646f6d2073656c656374696f60008201527f6e20796574000000000000000000000000000000000000000000000000000000602082015250565b7f796f7520616c726561647920636c61696d656400000000000000000000000000600082015250565b7f6f6e6c79207468652063726561746f722063616e2073656e642061207265766960008201527f6577000000000000000000000000000000000000000000000000000000000000602082015250565b7f7265766965776572206e6f7420696e2073656c6563746564207265766965776560008201527f7273000000000000000000000000000000000000000000000000000000000000602082015250565b7f4e6f7420656e6f756768204c494e4b202d2066696c6c20636f6e74726163742060008201527f7769746820666175636574000000000000000000000000000000000000000000602082015250565b7f6e6f742057616974696e6720666f722073746172742073746174650000000000600082015250565b7f6f776e657220686173206e6f742076616c69646174656420796f75722072657660008201527f6965772079657400000000000000000000000000000000000000000000000000602082015250565b7f7265766965772070726f636573732068617320616c726561647920737461727460008201527f6564000000000000000000000000000000000000000000000000000000000000602082015250565b7f796f752068617665206e6f74207365747465642074686520726577617264207960008201527f6574000000000000000000000000000000000000000000000000000000000000602082015250565b7f72657669656977657220616c7265616479207375626d69746564000000000000600082015250565b7f4f776e61626c653a2063616c6c6572206973206e6f7420746865206f776e6572600082015250565b7f4f6e6c7920565246436f6f7264696e61746f722063616e2066756c66696c6c00600082015250565b7f796f75206d757374207375626d69742061207265766965772066697273740000600082015250565b7f63616e6e6f742063616c6c207265766965772061737369676e6d656e742c206e60008201527f6f7420656e6f75676820726576696577657273206a6f696e6564000000000000602082015250565b7f736f6d652076616c7565206973206e6565646564000000000000000000000000600082015250565b7f796f752063616e6e6f742072657669657720796f757273656c66000000000000600082015250565b600381106136d0576136cf613221565b5b50565b600281106136e4576136e3613221565b5b50565b600281106136f8576136f7613221565b5b50565b61370481613041565b811461370f57600080fd5b50565b61371b81613053565b811461372657600080fd5b50565b6137328161305f565b811461373d57600080fd5b50565b613749816130c2565b811461375457600080fd5b5056fea26469706673582212205d74cb0d0e5120f9c8e66d8bde5e2abf3aa9d55565de5f44cdb9271fbd2f2c4e64736f6c63430008040033",
  "linkReferences": {},
  "deployedLinkReferences": {}
}